{
  "_format": "hh-sol-artifact-1",
  "contractName": "QuotationFactory",
  "sourceName": "contracts/QuotationFactory.sol",
  "abi": [
    {
      "inputs": [],
      "stateMutability": "nonpayable",
      "type": "constructor"
    },
    {
      "inputs": [
        {
          "internalType": "address",
          "name": "owner",
          "type": "address"
        }
      ],
      "name": "OwnableInvalidOwner",
      "type": "error"
    },
    {
      "inputs": [
        {
          "internalType": "address",
          "name": "account",
          "type": "address"
        }
      ],
      "name": "OwnableUnauthorizedAccount",
      "type": "error"
    },
    {
      "anonymous": false,
      "inputs": [
        {
          "indexed": true,
          "internalType": "address",
          "name": "previousOwner",
          "type": "address"
        },
        {
          "indexed": true,
          "internalType": "address",
          "name": "newOwner",
          "type": "address"
        }
      ],
      "name": "OwnershipTransferred",
      "type": "event"
    },
    {
      "anonymous": false,
      "inputs": [
        {
          "indexed": true,
          "internalType": "address",
          "name": "seller",
          "type": "address"
        },
        {
          "indexed": true,
          "internalType": "address",
          "name": "quotationAddress",
          "type": "address"
        },
        {
          "indexed": true,
          "internalType": "address",
          "name": "buyer",
          "type": "address"
        },
        {
          "indexed": false,
          "internalType": "uint256",
          "name": "total",
          "type": "uint256"
        },
        {
          "indexed": false,
          "internalType": "uint256",
          "name": "sellerStake",
          "type": "uint256"
        }
      ],
      "name": "QuotationCreated",
      "type": "event"
    },
    {
      "inputs": [
        {
          "internalType": "address",
          "name": "",
          "type": "address"
        },
        {
          "internalType": "uint256",
          "name": "",
          "type": "uint256"
        }
      ],
      "name": "buyerQuotations",
      "outputs": [
        {
          "internalType": "address",
          "name": "",
          "type": "address"
        }
      ],
      "stateMutability": "view",
      "type": "function"
    },
    {
      "inputs": [
        {
          "internalType": "address",
          "name": "buyer",
          "type": "address"
        },
        {
          "internalType": "uint256",
          "name": "totalAmount",
          "type": "uint256"
        },
        {
          "internalType": "uint256[]",
          "name": "milestonePercentsBP",
          "type": "uint256[]"
        },
        {
          "internalType": "uint256[]",
          "name": "milestoneDeadlines",
          "type": "uint256[]"
        },
        {
          "internalType": "uint256",
          "name": "clientWindowSeconds",
          "type": "uint256"
        },
        {
          "internalType": "uint8",
          "name": "maxRevisions",
          "type": "uint8"
        }
      ],
      "name": "createQuotation",
      "outputs": [
        {
          "internalType": "address",
          "name": "",
          "type": "address"
        }
      ],
      "stateMutability": "payable",
      "type": "function"
    },
    {
      "inputs": [
        {
          "internalType": "address",
          "name": "user",
          "type": "address"
        }
      ],
      "name": "getBuyerQuotations",
      "outputs": [
        {
          "internalType": "address[]",
          "name": "",
          "type": "address[]"
        }
      ],
      "stateMutability": "view",
      "type": "function"
    },
    {
      "inputs": [
        {
          "internalType": "address",
          "name": "user",
          "type": "address"
        }
      ],
      "name": "getUserQuotations",
      "outputs": [
        {
          "internalType": "address[]",
          "name": "",
          "type": "address[]"
        }
      ],
      "stateMutability": "view",
      "type": "function"
    },
    {
      "inputs": [],
      "name": "owner",
      "outputs": [
        {
          "internalType": "address",
          "name": "",
          "type": "address"
        }
      ],
      "stateMutability": "view",
      "type": "function"
    },
    {
      "inputs": [],
      "name": "renounceOwnership",
      "outputs": [],
      "stateMutability": "nonpayable",
      "type": "function"
    },
    {
      "inputs": [
        {
          "internalType": "address",
          "name": "",
          "type": "address"
        },
        {
          "internalType": "uint256",
          "name": "",
          "type": "uint256"
        }
      ],
      "name": "sellerQuotations",
      "outputs": [
        {
          "internalType": "address",
          "name": "",
          "type": "address"
        }
      ],
      "stateMutability": "view",
      "type": "function"
    },
    {
      "inputs": [
        {
          "internalType": "address",
          "name": "newOwner",
          "type": "address"
        }
      ],
      "name": "transferOwnership",
      "outputs": [],
      "stateMutability": "nonpayable",
      "type": "function"
    }
  ],
  "bytecode": "0x608060405234801561001057600080fd5b50338061003757604051631e4fbdf760e01b81526000600482015260240160405180910390fd5b61004081610046565b50610096565b600080546001600160a01b038381166001600160a01b0319831681178455604051919092169283917f8be0079c531659141344cd1fd0a4f28419497f9722a3daafe3b4186f6b6457e09190a35050565b612f12806100a56000396000f3fe608060405260043610620000745760003560e01c8063715018a6146200007957806375864de514620000935780637673f85314620000c25780638da5cb5b14620000f6578063aa20d61a1462000116578063dfbfdfcd146200013b578063f2fde38b1462000160578063f4c703171462000185575b600080fd5b3480156200008657600080fd5b5062000091620001aa565b005b620000aa620000a4366004620005c4565b620001c2565b604051620000b991906200067b565b60405180910390f35b348015620000cf57600080fd5b50620000e7620000e13660046200068f565b62000341565b604051620000b99190620006b4565b3480156200010357600080fd5b506000546001600160a01b0316620000aa565b3480156200012357600080fd5b50620000e7620001353660046200068f565b620003b9565b3480156200014857600080fd5b50620000aa6200015a36600462000703565b6200042f565b3480156200016d57600080fd5b50620000916200017f3660046200068f565b62000468565b3480156200019257600080fd5b50620000aa620001a436600462000703565b620004ad565b620001b4620004ca565b620001c06000620004fa565b565b60008584146200020b5760405162461bcd60e51b815260206004820152600f60248201526e0d8cadccee8d040dad2e6dac2e8c6d608b1b60448201526064015b60405180910390fd5b6000349050600034338c8c8c8c8c8c8c8c8b6040516200022b906200054a565b620002409a9998979695949392919062000763565b6040518091039082f09050801580156200025e573d6000803e3d6000fd5b5033600090815260016020818152604083208054928301815583529091200180546001600160a01b0319166001600160a01b038381169190911790915590915081908c1615620002e7576001600160a01b038c811660009081526002602090815260408220805460018101825590835291200180546001600160a01b0319169183169190911790555b604080518c8152602081018590526001600160a01b03808f16929084169133917f93efdbb8285f6570e9ecf17b21f9a7670a99da443b8030410fa0791a5970d940910160405180910390a49b9a5050505050505050505050565b6001600160a01b038116600090815260016020908152604091829020805483518184028101840190945280845260609392830182828015620003ad57602002820191906000526020600020905b81546001600160a01b031681526001909101906020018083116200038e575b50505050509050919050565b6001600160a01b038116600090815260026020908152604091829020805483518184028101840190945280845260609392830182828015620003ad576020028201919060005260206000209081546001600160a01b031681526001909101906020018083116200038e5750505050509050919050565b600260205281600052604060002081815481106200044c57600080fd5b6000918252602090912001546001600160a01b03169150829050565b62000472620004ca565b6001600160a01b0381166200049f576000604051631e4fbdf760e01b81526004016200020291906200067b565b620004aa81620004fa565b50565b600160205281600052604060002081815481106200044c57600080fd5b6000546001600160a01b03163314620001c0573360405163118cdaa760e01b81526004016200020291906200067b565b600080546001600160a01b038381166001600160a01b0319831681178455604051919092169283917f8be0079c531659141344cd1fd0a4f28419497f9722a3daafe3b4186f6b6457e09190a35050565b61270580620007d883390190565b80356001600160a01b03811681146200057057600080fd5b919050565b60008083601f8401126200058857600080fd5b50813567ffffffffffffffff811115620005a157600080fd5b6020830191508360208260051b8501011115620005bd57600080fd5b9250929050565b60008060008060008060008060c0898b031215620005e157600080fd5b620005ec8962000558565b975060208901359650604089013567ffffffffffffffff808211156200061157600080fd5b6200061f8c838d0162000575565b909850965060608b01359150808211156200063957600080fd5b50620006488b828c0162000575565b9095509350506080890135915060a089013560ff811681146200066a57600080fd5b809150509295985092959890939650565b6001600160a01b0391909116815260200190565b600060208284031215620006a257600080fd5b620006ad8262000558565b9392505050565b6020808252825182820181905260009190848201906040850190845b81811015620006f75783516001600160a01b031683529284019291840191600101620006d0565b50909695505050505050565b600080604083850312156200071757600080fd5b620007228362000558565b946020939093013593505050565b81835260006001600160fb1b038311156200074a57600080fd5b8260051b80836020870137939093016020019392505050565b6001600160a01b038b811682528a16602082015260408101899052610100606082018190526000906200079a8382018a8c62000730565b90508281036080840152620007b181888a62000730565b60a0840196909652505060ff9290921660c083015260e09091015297965050505050505056fe60806040526040516200270538038062002705833981016040819052620000269162000593565b876001600160a01b0381166200005757604051631e4fbdf760e01b8152600060048201526024015b60405180910390fd5b62000062816200046c565b50600180556001600160a01b038816620000ad5760405162461bcd60e51b815260206004820152600b60248201526a73656c6c6572207a65726f60a81b60448201526064016200004e565b60008611620000ec5760405162461bcd60e51b815260206004820152600a602482015269746f74616c207a65726f60b01b60448201526064016200004e565b83518551146200012e5760405162461bcd60e51b815260206004820152600c60248201526b0d8cadc40dad2e6dac2e8c6d60a31b60448201526064016200004e565b6000805b86518110156200017d578681815181106200015157620001516200065c565b60200260200101518262000166919062000688565b9150806200017481620006a4565b91505062000132565b508061271014620001d15760405162461bcd60e51b815260206004820152601760248201527f70657263656e7473206d7573742073756d20313030303000000000000000000060448201526064016200004e565b600280546001600160a01b038b81166001600160a01b03199283161790925560038054928b16929091169190911790556004879055426006556007805460ff19169055831562000222578362000227565b62093a805b60085560006009819055600b805460ff191660ff8616179055600c8390555b8651811015620004135760006127108883815181106200026a576200026a6200065c565b60200260200101518a6200027f9190620006d6565b6200028b9190620006f0565b9050600a6040518061012001604052808a8581518110620002b057620002b06200065c565b6020026020010151815260200183815260200160006004811115620002d957620002d9620006c0565b815260200160008152602001600060ff1681526020018985815181106200030457620003046200065c565b602090810291909101810151825260408051808301825260008082528484019190915281840181905260609093018390528454600181810187559584529282902084516008909402019283559083015182850155820151600282018054939492939192909160ff191690836004811115620003835762000383620006c0565b021790555060608201516003820155608082015160048201805460ff191660ff90921691909117905560a0820151600582015560c08201516006820190620003cc9082620007a2565b5060e082015160079190910180546101009384015161ffff1990911692151561ff0019169290921791151590920217905550806200040a81620006a4565b91505062000246565b506003546002546040518981526001600160a01b0392831692909116907f5f9f09111aa41ed5dbcbe1f33f7adf1abe2a52ec9f9d2afea63f3bc6c1de31af9060200160405180910390a35050505050505050506200086e565b600080546001600160a01b038381166001600160a01b0319831681178455604051919092169283917f8be0079c531659141344cd1fd0a4f28419497f9722a3daafe3b4186f6b6457e09190a35050565b80516001600160a01b0381168114620004d457600080fd5b919050565b634e487b7160e01b600052604160045260246000fd5b600082601f8301126200050157600080fd5b815160206001600160401b0380831115620005205762000520620004d9565b8260051b604051601f19603f83011681018181108482111715620005485762000548620004d9565b6040529384528581018301938381019250878511156200056757600080fd5b83870191505b8482101562000588578151835291830191908301906200056d565b979650505050505050565b600080600080600080600080610100898b031215620005b157600080fd5b620005bc89620004bc565b9750620005cc60208a01620004bc565b60408a015160608b015191985096506001600160401b0380821115620005f157600080fd5b620005ff8c838d01620004ef565b965060808b01519150808211156200061657600080fd5b50620006258b828c01620004ef565b94505060a0890151925060c089015160ff811681146200064457600080fd5b8092505060e089015190509295985092959890939650565b634e487b7160e01b600052603260045260246000fd5b634e487b7160e01b600052601160045260246000fd5b808201808211156200069e576200069e62000672565b92915050565b600060018201620006b957620006b962000672565b5060010190565b634e487b7160e01b600052602160045260246000fd5b80820281158282048414176200069e576200069e62000672565b6000826200070e57634e487b7160e01b600052601260045260246000fd5b500490565b600181811c908216806200072857607f821691505b6020821081036200074957634e487b7160e01b600052602260045260246000fd5b50919050565b601f8211156200079d57600081815260208120601f850160051c81016020861015620007785750805b601f850160051c820191505b81811015620007995782815560010162000784565b5050505b505050565b81516001600160401b03811115620007be57620007be620004d9565b620007d681620007cf845462000713565b846200074f565b602080601f8311600181146200080e5760008415620007f55750858301515b600019600386901b1c1916600185901b17855562000799565b600085815260208120601f198616915b828110156200083f578886015182559484019460019091019084016200081e565b50858210156200085e5787850151600019600388901b60f8161c191681555b5050505050600190811b01905550565b611e87806200087e6000396000f3fe6080604052600436106101455760003560e01c80637150d8ae116100b15780637150d8ae146102da5780638da5cb5b146102fa5780638eaca5f614610318578063a36697d31461032e578063a3d97d611461034e578063b03048131461036e578063b8a7b38a14610384578063baafe32d146103ae578063c438b40f146103c4578063cf09e0d0146103e4578063d36dedd2146103fa578063d43fee1814610449578063f2fde38b1461046357600080fd5b806305ccecc6146101515780630681ca551461016857806308551a531461018c5780631a39d8ef146101b95780631b9265b8146101cf578063200d2ed2146101d75780632442e1cb146101fe57806333f092f91461023357806347b001011461024957806351261ca21461025e5780635a3a2c2e146102735780635e29172f146102a5578063715018a6146102c557600080fd5b3661014c57005b600080fd5b34801561015d57600080fd5b50610166610483565b005b34801561017457600080fd5b50600a545b6040519081526020015b60405180910390f35b34801561019857600080fd5b506002546101ac906001600160a01b031681565b6040516101839190611939565b3480156101c557600080fd5b5061017960045481565b6101666105fe565b3480156101e357600080fd5b506007546101f19060ff1681565b6040516101839190611977565b34801561020a57600080fd5b5061021e61021936600461198b565b610748565b604051610183999897969594939291906119a4565b34801561023f57600080fd5b5061017960055481565b34801561025557600080fd5b50610166610870565b34801561026a57600080fd5b50610166610a49565b34801561027f57600080fd5b5061029361028e36600461198b565b610b86565b60405160ff9091168152602001610183565b3480156102b157600080fd5b506101666102c0366004611a52565b610c2c565b3480156102d157600080fd5b50610166610e5e565b3480156102e657600080fd5b506003546101ac906001600160a01b031681565b34801561030657600080fd5b506000546001600160a01b03166101ac565b34801561032457600080fd5b5061017960085481565b34801561033a57600080fd5b50610166610349366004611a52565b610e70565b34801561035a57600080fd5b5061016661036936600461198b565b61103f565b34801561037a57600080fd5b5061017960095481565b34801561039057600080fd5b50600d5461039e9060ff1681565b6040519015158152602001610183565b3480156103ba57600080fd5b50610179600c5481565b3480156103d057600080fd5b506101666103df36600461198b565b61131f565b3480156103f057600080fd5b5061017960065481565b34801561040657600080fd5b50600254600354600454600554600654600754600854600954600b54604051610183996001600160a01b0390811699169796959460ff9081169493921690611ace565b34801561045557600080fd5b50600b546102939060ff1681565b34801561046f57600080fd5b5061016661047e366004611b2d565b6114b5565b61048b6114f0565b600260075460ff1660068111156104a4576104a461194d565b146104e85760405162461bcd60e51b815260206004820152600f60248201526e6e6f7420696e2070726f677265737360881b60448201526064015b60405180910390fd5b6000600a600954815481106104ff576104ff611b56565b6000918252602090912060089091020190506001600282015460ff16600481111561052c5761052c61194d565b146105495760405162461bcd60e51b81526004016104df90611b6c565b600854816003015461055b9190611ba9565b4210156105a15760405162461bcd60e51b8152602060048201526014602482015273636c69656e742077696e646f772061637469766560601b60448201526064016104df565b6105ad8160095461151a565b600980549060006105bd83611bbc565b9091555050600a54600954106105f2576007805460ff19166003179055604051600080516020611e3283398151915290600090a15b506105fc60018055565b565b6106066114f0565b600060075460ff16600681111561061f5761061f61194d565b1461065a5760405162461bcd60e51b815260206004820152600b60248201526a6e6f742070617961626c6560a81b60448201526064016104df565b6003546001600160a01b0316156106b1576003546001600160a01b031633146106b15760405162461bcd60e51b81526020600482015260096024820152683737ba10313abcb2b960b91b60448201526064016104df565b60045434146106f15760405162461bcd60e51b815260206004820152600c60248201526b1ddc9bdb99c8185b5bdd5b9d60a21b60448201526064016104df565b426005556007805460ff1916600117905561070a611602565b60405134815233907f737c69225d647e5994eab1a6c301bf6d9232beb2759ae1e27a8966b4732bc4899060200160405180910390a26105fc60018055565b60008060008060008060606000806000600a8b8154811061076b5761076b611b56565b6000918252602090912060089091020180546001820154600283015460038401546004850154600586015460078701546006880180549899509697959660ff95861696949593841694929390928282169261010090049091169083906107d090611bd5565b80601f01602080910402602001604051908101604052809291908181526020018280546107fc90611bd5565b80156108495780601f1061081e57610100808354040283529160200191610849565b820191906000526020600020905b81548152906001019060200180831161082c57829003601f168201915b50505050509250995099509950995099509950995099509950509193959799909294969850565b6108786114f0565b600160075460ff1660068111156108915761089161194d565b14806108b35750600260075460ff1660068111156108b1576108b161194d565b145b6108cf5760405162461bcd60e51b81526004016104df90611c0f565b6000600a600954815481106108e6576108e6611b56565b9060005260206000209060080201905080600501544210156109405760405162461bcd60e51b8152602060048201526013602482015272191958591b1a5b99481b9bdd081c185cdcd959606a1b60448201526064016104df565b600061094a611681565b600c546007805460ff19908116600417909155600d8054909116600117905560035491925090610983906001600160a01b031683611760565b80156109fe576003546040516000916001600160a01b03169083908381818185875af1925050503d80600081146109d6576040519150601f19603f3d011682016040523d82523d6000602084013e6109db565b606091505b50509050806109fc5760405162461bcd60e51b81526004016104df90611c35565b505b6009547f9b0ea444e9e2f5329d302a1a5cc179077359d71dfc083cfcf88360adfa01b309610a2c8385611ba9565b60405190815260200160405180910390a25050506105fc60018055565b6002546001600160a01b03163314610a735760405162461bcd60e51b81526004016104df90611c62565b610a7b6114f0565b600060075460ff166006811115610a9457610a9461194d565b1480610ab65750600160075460ff166006811115610ab457610ab461194d565b145b610af25760405162461bcd60e51b815260206004820152600d60248201526c18d85b9b9bdd0818d85b98d95b609a1b60448201526064016104df565b600160075460ff166006811115610b0b57610b0b61194d565b03610b46576000610b1a611681565b6007805460ff19166004179055600354909150610b40906001600160a01b031682611760565b50610b54565b6007805460ff191660061790555b6040517fff55f944e5e81a0b0359ad20d72ceae167ab0a2b960e2c2cd67ebf5b43d15f2990600090a16105fc60018055565b600a546000908210610bc85760405162461bcd60e51b815260206004820152600b60248201526a0d2dcecc2d8d2c840d2c8f60ab1b60448201526064016104df565b6000600a8381548110610bdd57610bdd611b56565b60009182526020909120600b54600890920201600481015490925060ff918216911610610c0d5750600092915050565b6004810154600b54610c259160ff9081169116611c87565b9392505050565b6002546001600160a01b03163314610c565760405162461bcd60e51b81526004016104df90611c62565b610c5e6114f0565b600160075460ff166006811115610c7757610c7761194d565b1480610c995750600260075460ff166006811115610c9757610c9761194d565b145b610cd25760405162461bcd60e51b815260206004820152600a6024820152696e6f742061637469766560b01b60448201526064016104df565b6009548314610d1b5760405162461bcd60e51b81526020600482015260156024820152746e6f742063757272656e74206d696c6573746f6e6560581b60448201526064016104df565b6000600a8481548110610d3057610d30611b56565b6000918252602082206008909102019150600282015460ff166004811115610d5a57610d5a61194d565b14610d9b5760405162461bcd60e51b8152602060048201526011602482015270185b1c9958591e481cdd589b5a5d1d1959607a1b60448201526064016104df565b8060050154421115610de15760405162461bcd60e51b815260206004820152600f60248201526e191958591b1a5b99481c185cdcd959608a1b60448201526064016104df565b60028101805460ff1916600117905542600382015560068101610e05838583611d04565b506007805460ff1916600217905560405184907ff04befa55a56a87de7073cea8ab22499ccb81b540f0999577cf892224e3f721f90610e479086908690611dc5565b60405180910390a250610e5960018055565b505050565b610e666117ff565b6105fc600061182c565b6003546001600160a01b031615801590610e9457506003546001600160a01b031633145b610eb05760405162461bcd60e51b81526004016104df90611df4565b6000600a8481548110610ec557610ec5611b56565b6000918252602090912060089091020190506001600282015460ff166004811115610ef257610ef261194d565b14610f2f5760405162461bcd60e51b815260206004820152600d60248201526c37379039bab136b4b9b9b4b7b760991b60448201526064016104df565b600b54600482015460ff918216911610610f835760405162461bcd60e51b81526020600482015260156024820152741b585e081c995d9a5cda5bdb9cc81c995858da1959605a1b60448201526064016104df565b60048101805460019190600090610f9e90849060ff16611e18565b92506101000a81548160ff021916908360ff160217905550336001600160a01b03167f28b099eb575e23e32becd7c30dc8f9b2f98e370cdbf9841ea3338d9000402a258484604051610ff1929190611dc5565b60405180910390a2600b54600482015460ff9182169116106110395760405184907f61d2b9d77a1822ea58c83e0b3ec044610d9e89c7111664333de5bc648c5e4aab90600090a25b50505050565b6002546001600160a01b031633148061106257506003546001600160a01b031633145b61109a5760405162461bcd60e51b81526020600482015260096024820152686e6f7420706172747960b81b60448201526064016104df565b6000600a82815481106110af576110af611b56565b60009182526020909120600b54600890920201600481015490925060ff918216911610156111165760405162461bcd60e51b81526020600482015260146024820152736e6f74206174206d6178207265766973696f6e7360601b60448201526064016104df565b600160075460ff16600681111561112f5761112f61194d565b14806111515750600260075460ff16600681111561114f5761114f61194d565b145b61116d5760405162461bcd60e51b81526004016104df90611c0f565b6003546001600160a01b031633036111935760078101805460ff191660011790556111a5565b60078101805461ff0019166101001790555b604051829033907f74d3eecbd7925611952eb75f45f1854034c0d47fec6eabca3d778e5d331f1ef290600090a3600781015460ff1680156111ef57506007810154610100900460ff165b1561131b5760006111fe611681565b600c546007805460ff19908116600417909155600d8054909116600117905560035491925090611237906001600160a01b031683611760565b80156112b2576003546040516000916001600160a01b03169083908381818185875af1925050503d806000811461128a576040519150601f19603f3d011682016040523d82523d6000602084013e61128f565b606091505b50509050806112b05760405162461bcd60e51b81526004016104df90611c35565b505b837fd217ca15ec0a9eff56487d7c3b18a4caff4ae5c28f1cf8271899757ff7cec5f16112de8385611ba9565b60405190815260200160405180910390a26040517fff55f944e5e81a0b0359ad20d72ceae167ab0a2b960e2c2cd67ebf5b43d15f2990600090a150505b5050565b6003546001600160a01b03161580159061134357506003546001600160a01b031633145b61135f5760405162461bcd60e51b81526004016104df90611df4565b6113676114f0565b6000600a828154811061137c5761137c611b56565b6000918252602090912060089091020190506001600282015460ff1660048111156113a9576113a961194d565b146113c65760405162461bcd60e51b81526004016104df90611b6c565b6002818101805460ff191690911790556113e0818361151a565b60078101805461ffff19169055600980549060006113fd83611bbc565b9091555050600a5460095410611432576007805460ff19166003179055604051600080516020611e3283398151915290600090a15b600a546009541061146a576007805460ff1916600317905561145261187c565b604051600080516020611e3283398151915290600090a15b817f939da3b627c123c81fe5aacebf925163337a0d4f8a03724640618078cad2489482600101546040516114a091815260200190565b60405180910390a2506114b260018055565b50565b6114bd6117ff565b6001600160a01b0381166114e7576000604051631e4fbdf760e01b81526004016104df9190611939565b6114b28161182c565b60026001540361151357604051633ee5aeb560e01b815260040160405180910390fd5b6002600155565b60018201546002808401805460ff19166003179055546040516000916001600160a01b03169083908381818185875af1925050503d806000811461157a576040519150601f19603f3d011682016040523d82523d6000602084013e61157f565b606091505b50509050806115c25760405162461bcd60e51b815260206004820152600f60248201526e1d1c985b9cd9995c8819985a5b1959608a1b60448201526064016104df565b827f9e069181c12760c2cd0078ed4facdbe1f3614543b0fbff5dbcac3cbc61a0b64e836040516115f491815260200190565b60405180910390a250505050565b60055460005b600a5481101561131b576000600a828154811061162757611627611b56565b906000526020600020906008020160050154905080836116479190611ba9565b600a838154811061165a5761165a611b56565b6000918252602090912060056008909202010155508061167981611bbc565b915050611608565b6000805b600a5481101561175c576000600a82815481106116a4576116a4611b56565b600091825260209091206002600890920201015460ff1660048111156116cc576116cc61194d565b148061171257506001600a82815481106116e8576116e8611b56565b600091825260209091206002600890920201015460ff1660048111156117105761171061194d565b145b1561174a57600a818154811061172a5761172a611b56565b906000526020600020906008020160010154826117479190611ba9565b91505b8061175481611bbc565b915050611685565b5090565b8060000361176c575050565b6000826001600160a01b03168260405160006040518083038185875af1925050503d80600081146117b9576040519150601f19603f3d011682016040523d82523d6000602084013e6117be565b606091505b5050905080610e595760405162461bcd60e51b815260206004820152600d60248201526c1c185e5bdd5d0819985a5b1959609a1b60448201526064016104df565b6000546001600160a01b031633146105fc573360405163118cdaa760e01b81526004016104df9190611939565b600080546001600160a01b038381166001600160a01b0319831681178455604051919092169283917f8be0079c531659141344cd1fd0a4f28419497f9722a3daafe3b4186f6b6457e09190a35050565b600d5460ff161561188957565b600d805460ff19166001179055600c54156105fc57600254600c546040516000926001600160a01b031691908381818185875af1925050503d80600081146118ed576040519150601f19603f3d011682016040523d82523d6000602084013e6118f2565b606091505b50509050806114b25760405162461bcd60e51b81526020600482015260136024820152721cdd185ad9481c995d1d5c9b8819985a5b1959606a1b60448201526064016104df565b6001600160a01b0391909116815260200190565b634e487b7160e01b600052602160045260246000fd5b600781106119735761197361194d565b9052565b602081016119858284611963565b92915050565b60006020828403121561199d57600080fd5b5035919050565b60006101208b835260208b8185015260058b106119c3576119c361194d565b8a604085015289606085015260ff891660808501528760a08501528160c085015286518083860152600092505b80831015611a0f578783018201518584016101400152918101916119f0565b6101409250600083828701015282601f19601f8301168601019350505050611a3b60e083018515159052565b8215156101008301529a9950505050505050505050565b600080600060408486031215611a6757600080fd5b83359250602084013567ffffffffffffffff80821115611a8657600080fd5b818601915086601f830112611a9a57600080fd5b813581811115611aa957600080fd5b876020828501011115611abb57600080fd5b6020830194508093505050509250925092565b6001600160a01b038a81168252891660208201526040810188905260608101879052608081018690526101208101611b0960a0830187611963565b8460c08301528360e083015260ff83166101008301529a9950505050505050505050565b600060208284031215611b3f57600080fd5b81356001600160a01b0381168114610c2557600080fd5b634e487b7160e01b600052603260045260246000fd5b6020808252600d908201526c1b9bdd081cdd589b5a5d1d1959609a1b604082015260600190565b634e487b7160e01b600052601160045260246000fd5b8082018082111561198557611985611b93565b600060018201611bce57611bce611b93565b5060010190565b600181811c90821680611be957607f821691505b602082108103611c0957634e487b7160e01b600052602260045260246000fd5b50919050565b6020808252600c908201526b77726f6e672073746174757360a01b604082015260600190565b6020808252601390820152721cdd185ad9481c185e5bdd5d0819985a5b1959606a1b604082015260600190565b6020808252600b908201526a37b7363c9039b2b63632b960a91b604082015260600190565b60ff828116828216039081111561198557611985611b93565b634e487b7160e01b600052604160045260246000fd5b601f821115610e5957600081815260208120601f850160051c81016020861015611cdd5750805b601f850160051c820191505b81811015611cfc57828155600101611ce9565b505050505050565b67ffffffffffffffff831115611d1c57611d1c611ca0565b611d3083611d2a8354611bd5565b83611cb6565b6000601f841160018114611d645760008515611d4c5750838201355b600019600387901b1c1916600186901b178355611dbe565b600083815260209020601f19861690835b82811015611d955786850135825560209485019460019092019101611d75565b5086821015611db25760001960f88860031b161c19848701351681555b505060018560011b0183555b5050505050565b60208152816020820152818360408301376000818301604090810191909152601f909201601f19160101919050565b6020808252600a908201526937b7363c90313abcb2b960b11b604082015260600190565b60ff818116838216019081111561198557611985611b9356fec53292e4886b96b87cbcf562015d6bda4f0f183785772ae81e04ee0564066665a26469706673582212205b622197dcd71cad52d46747431ef90200582bd5b82fd10d5b79aafeb8aaa7e164736f6c63430008140033a2646970667358221220bebf28a6d1ef8ab640de2f22d030f787a60f38086fe0d2945d2c09617eaf7c6d64736f6c63430008140033",
  "linkReferences": {},
  "deployedLinkReferences": {}
}