{
  "_format": "hh-sol-artifact-1",
  "contractName": "QuotationFactory",
  "sourceName": "contracts/QuotationFactory.sol",
  "abi": [
    {
      "inputs": [],
      "stateMutability": "nonpayable",
      "type": "constructor"
    },
    {
      "inputs": [
        {
          "internalType": "address",
          "name": "owner",
          "type": "address"
        }
      ],
      "name": "OwnableInvalidOwner",
      "type": "error"
    },
    {
      "inputs": [
        {
          "internalType": "address",
          "name": "account",
          "type": "address"
        }
      ],
      "name": "OwnableUnauthorizedAccount",
      "type": "error"
    },
    {
      "anonymous": false,
      "inputs": [
        {
          "indexed": true,
          "internalType": "address",
          "name": "previousOwner",
          "type": "address"
        },
        {
          "indexed": true,
          "internalType": "address",
          "name": "newOwner",
          "type": "address"
        }
      ],
      "name": "OwnershipTransferred",
      "type": "event"
    },
    {
      "anonymous": false,
      "inputs": [
        {
          "indexed": true,
          "internalType": "address",
          "name": "seller",
          "type": "address"
        },
        {
          "indexed": true,
          "internalType": "address",
          "name": "quotationAddress",
          "type": "address"
        },
        {
          "indexed": true,
          "internalType": "address",
          "name": "buyer",
          "type": "address"
        },
        {
          "indexed": false,
          "internalType": "uint256",
          "name": "total",
          "type": "uint256"
        }
      ],
      "name": "QuotationCreated",
      "type": "event"
    },
    {
      "inputs": [
        {
          "internalType": "address",
          "name": "",
          "type": "address"
        },
        {
          "internalType": "uint256",
          "name": "",
          "type": "uint256"
        }
      ],
      "name": "buyerQuotations",
      "outputs": [
        {
          "internalType": "address",
          "name": "",
          "type": "address"
        }
      ],
      "stateMutability": "view",
      "type": "function"
    },
    {
      "inputs": [
        {
          "internalType": "address",
          "name": "buyer",
          "type": "address"
        },
        {
          "internalType": "uint256",
          "name": "totalAmount",
          "type": "uint256"
        },
        {
          "internalType": "uint256[]",
          "name": "milestonePercentsBP",
          "type": "uint256[]"
        },
        {
          "internalType": "uint256[]",
          "name": "milestoneDeadlines",
          "type": "uint256[]"
        },
        {
          "internalType": "uint256",
          "name": "clientWindowSeconds",
          "type": "uint256"
        },
        {
          "internalType": "uint8",
          "name": "maxRevisions",
          "type": "uint8"
        }
      ],
      "name": "createQuotation",
      "outputs": [
        {
          "internalType": "address",
          "name": "",
          "type": "address"
        }
      ],
      "stateMutability": "nonpayable",
      "type": "function"
    },
    {
      "inputs": [
        {
          "internalType": "address",
          "name": "user",
          "type": "address"
        }
      ],
      "name": "getBuyerQuotations",
      "outputs": [
        {
          "internalType": "address[]",
          "name": "",
          "type": "address[]"
        }
      ],
      "stateMutability": "view",
      "type": "function"
    },
    {
      "inputs": [
        {
          "internalType": "address",
          "name": "user",
          "type": "address"
        }
      ],
      "name": "getUserQuotations",
      "outputs": [
        {
          "internalType": "address[]",
          "name": "",
          "type": "address[]"
        }
      ],
      "stateMutability": "view",
      "type": "function"
    },
    {
      "inputs": [],
      "name": "owner",
      "outputs": [
        {
          "internalType": "address",
          "name": "",
          "type": "address"
        }
      ],
      "stateMutability": "view",
      "type": "function"
    },
    {
      "inputs": [],
      "name": "renounceOwnership",
      "outputs": [],
      "stateMutability": "nonpayable",
      "type": "function"
    },
    {
      "inputs": [
        {
          "internalType": "address",
          "name": "",
          "type": "address"
        },
        {
          "internalType": "uint256",
          "name": "",
          "type": "uint256"
        }
      ],
      "name": "sellerQuotations",
      "outputs": [
        {
          "internalType": "address",
          "name": "",
          "type": "address"
        }
      ],
      "stateMutability": "view",
      "type": "function"
    },
    {
      "inputs": [
        {
          "internalType": "address",
          "name": "newOwner",
          "type": "address"
        }
      ],
      "name": "transferOwnership",
      "outputs": [],
      "stateMutability": "nonpayable",
      "type": "function"
    }
  ],
  "bytecode": "0x608060405234801561001057600080fd5b50338061003757604051631e4fbdf760e01b81526000600482015260240160405180910390fd5b61004081610046565b50610096565b600080546001600160a01b038381166001600160a01b0319831681178455604051919092169283917f8be0079c531659141344cd1fd0a4f28419497f9722a3daafe3b4186f6b6457e09190a35050565b612c18806100a56000396000f3fe60806040523480156200001157600080fd5b5060043610620000825760003560e01c8063715018a6146200008757806375864de514620000935780637673f85314620000c25780638da5cb5b14620000e8578063aa20d61a14620000fa578063dfbfdfcd1462000111578063f2fde38b1462000128578063f4c70317146200013f575b600080fd5b6200009162000156565b005b620000aa620000a436600462000573565b6200016e565b604051620000b991906200062a565b60405180910390f35b620000d9620000d33660046200063e565b620002f0565b604051620000b9919062000663565b6000546001600160a01b0316620000aa565b620000d96200010b3660046200063e565b62000368565b620000aa62000122366004620006b2565b620003de565b62000091620001393660046200063e565b62000417565b620000aa62000150366004620006b2565b6200045c565b6200016062000479565b6200016c6000620004a9565b565b6000858414620001b75760405162461bcd60e51b815260206004820152600f60248201526e0d8cadccee8d040dad2e6dac2e8c6d608b1b60448201526064015b60405180910390fd5b6000338a8a8a8a8a8a8a8a604051620001d090620004f9565b620001e49998979695949392919062000712565b604051809103906000f08015801562000201573d6000803e3d6000fd5b5033600090815260016020818152604083208054928301815583529091200180546001600160a01b0319166001600160a01b038381169190911790915590915081908b16156200028a576001600160a01b038b811660009081526002602090815260408220805460018101825590835291200180546001600160a01b0319169183169190911790555b8a6001600160a01b0316816001600160a01b0316336001600160a01b03167fb8943870988e6cf39b8ff437da959d1fde0bd2005083c31c5ebf5c46a202532e8d604051620002da91815260200190565b60405180910390a49a9950505050505050505050565b6001600160a01b0381166000908152600160209081526040918290208054835181840281018401909452808452606093928301828280156200035c57602002820191906000526020600020905b81546001600160a01b031681526001909101906020018083116200033d575b50505050509050919050565b6001600160a01b0381166000908152600260209081526040918290208054835181840281018401909452808452606093928301828280156200035c576020028201919060005260206000209081546001600160a01b031681526001909101906020018083116200033d5750505050509050919050565b60026020528160005260406000208181548110620003fb57600080fd5b6000918252602090912001546001600160a01b03169150829050565b6200042162000479565b6001600160a01b0381166200044e576000604051631e4fbdf760e01b8152600401620001ae91906200062a565b6200045981620004a9565b50565b60016020528160005260406000208181548110620003fb57600080fd5b6000546001600160a01b031633146200016c573360405163118cdaa760e01b8152600401620001ae91906200062a565b600080546001600160a01b038381166001600160a01b0319831681178455604051919092169283917f8be0079c531659141344cd1fd0a4f28419497f9722a3daafe3b4186f6b6457e09190a35050565b612465806200077e83390190565b80356001600160a01b03811681146200051f57600080fd5b919050565b60008083601f8401126200053757600080fd5b50813567ffffffffffffffff8111156200055057600080fd5b6020830191508360208260051b85010111156200056c57600080fd5b9250929050565b60008060008060008060008060c0898b0312156200059057600080fd5b6200059b8962000507565b975060208901359650604089013567ffffffffffffffff80821115620005c057600080fd5b620005ce8c838d0162000524565b909850965060608b0135915080821115620005e857600080fd5b50620005f78b828c0162000524565b9095509350506080890135915060a089013560ff811681146200061957600080fd5b809150509295985092959890939650565b6001600160a01b0391909116815260200190565b6000602082840312156200065157600080fd5b6200065c8262000507565b9392505050565b6020808252825182820181905260009190848201906040850190845b81811015620006a65783516001600160a01b0316835292840192918401916001016200067f565b50909695505050505050565b60008060408385031215620006c657600080fd5b620006d18362000507565b946020939093013593505050565b81835260006001600160fb1b03831115620006f957600080fd5b8260051b80836020870137939093016020019392505050565b6001600160a01b038a81168252891660208201526040810188905260e06060820181905260009062000748908301888a620006df565b82810360808401526200075d818789620006df565b9150508360a083015260ff831660c08301529a995050505050505050505056fe60806040523480156200001157600080fd5b50604051620024653803806200246583398101604081905262000034916200059b565b866001600160a01b0381166200006557604051631e4fbdf760e01b8152600060048201526024015b60405180910390fd5b620000708162000474565b50600180556001600160a01b038716620000bb5760405162461bcd60e51b815260206004820152600b60248201526a73656c6c6572207a65726f60a81b60448201526064016200005c565b60008511620000fa5760405162461bcd60e51b815260206004820152600a602482015269746f74616c207a65726f60b01b60448201526064016200005c565b82518451146200013c5760405162461bcd60e51b815260206004820152600c60248201526b0d8cadc40dad2e6dac2e8c6d60a31b60448201526064016200005c565b6000805b85518110156200018b578581815181106200015f576200015f6200065a565b60200260200101518262000174919062000686565b9150806200018281620006a2565b91505062000140565b508061271014620001df5760405162461bcd60e51b815260206004820152601760248201527f70657263656e7473206d7573742073756d20313030303000000000000000000060448201526064016200005c565b600280546001600160a01b038a81166001600160a01b03199283161790925560038054928a16929091169190911790556004869055426006556007805460ff19169055821562000230578262000235565b62093a805b60085560006009819055600b805460ff191660ff85161790555b85518110156200041c5760006127108783815181106200027357620002736200065a565b602002602001015189620002889190620006d4565b620002949190620006ee565b9050600a604051806101200160405280898581518110620002b957620002b96200065a565b6020026020010151815260200183815260200160006004811115620002e257620002e2620006be565b815260200160008152602001600060ff1681526020018885815181106200030d576200030d6200065a565b602090810291909101810151825260408051808301825260008082528484019190915281840181905260609093018390528454600181810187559584529282902084516008909402019283559083015182850155820151600282018054939492939192909160ff1916908360048111156200038c576200038c620006be565b021790555060608201516003820155608082015160048201805460ff191660ff90921691909117905560a0820151600582015560c08201516006820190620003d59082620007a0565b5060e082015160079190910180546101009384015161ffff1990911692151561ff0019169290921791151590920217905550806200041381620006a2565b9150506200024f565b506003546002546040518881526001600160a01b0392831692909116907f5f9f09111aa41ed5dbcbe1f33f7adf1abe2a52ec9f9d2afea63f3bc6c1de31af9060200160405180910390a350505050505050506200086c565b600080546001600160a01b038381166001600160a01b0319831681178455604051919092169283917f8be0079c531659141344cd1fd0a4f28419497f9722a3daafe3b4186f6b6457e09190a35050565b80516001600160a01b0381168114620004dc57600080fd5b919050565b634e487b7160e01b600052604160045260246000fd5b600082601f8301126200050957600080fd5b815160206001600160401b0380831115620005285762000528620004e1565b8260051b604051601f19603f83011681018181108482111715620005505762000550620004e1565b6040529384528581018301938381019250878511156200056f57600080fd5b83870191505b84821015620005905781518352918301919083019062000575565b979650505050505050565b600080600080600080600060e0888a031215620005b757600080fd5b620005c288620004c4565b9650620005d260208901620004c4565b604089015160608a015191975095506001600160401b0380821115620005f757600080fd5b620006058b838c01620004f7565b955060808a01519150808211156200061c57600080fd5b506200062b8a828b01620004f7565b93505060a0880151915060c088015160ff811681146200064a57600080fd5b8091505092959891949750929550565b634e487b7160e01b600052603260045260246000fd5b634e487b7160e01b600052601160045260246000fd5b808201808211156200069c576200069c62000670565b92915050565b600060018201620006b757620006b762000670565b5060010190565b634e487b7160e01b600052602160045260246000fd5b80820281158282048414176200069c576200069c62000670565b6000826200070c57634e487b7160e01b600052601260045260246000fd5b500490565b600181811c908216806200072657607f821691505b6020821081036200074757634e487b7160e01b600052602260045260246000fd5b50919050565b601f8211156200079b57600081815260208120601f850160051c81016020861015620007765750805b601f850160051c820191505b81811015620007975782815560010162000782565b5050505b505050565b81516001600160401b03811115620007bc57620007bc620004e1565b620007d481620007cd845462000711565b846200074d565b602080601f8311600181146200080c5760008415620007f35750858301515b600019600386901b1c1916600185901b17855562000797565b600085815260208120601f198616915b828110156200083d578886015182559484019460019091019084016200081c565b50858210156200085c5787850151600019600388901b60f8161c191681555b5050505050600190811b01905550565b611be9806200087c6000396000f3fe60806040526004361061012f5760003560e01c8063715018a6116100a6578063715018a6146102af5780637150d8ae146102c45780638da5cb5b146102e45780638eaca5f614610302578063a36697d314610318578063a3d97d6114610338578063b030481314610358578063c438b40f1461036e578063cf09e0d01461038e578063d36dedd2146103a4578063d43fee18146103f3578063f2fde38b1461040d57600080fd5b806305ccecc61461013b5780630681ca551461015257806308551a53146101765780631a39d8ef146101a35780631b9265b8146101b9578063200d2ed2146101c15780632442e1cb146101e857806333f092f91461021d57806347b001011461023357806351261ca2146102485780635a3a2c2e1461025d5780635e29172f1461028f57600080fd5b3661013657005b600080fd5b34801561014757600080fd5b5061015061042d565b005b34801561015e57600080fd5b50600a545b6040519081526020015b60405180910390f35b34801561018257600080fd5b50600254610196906001600160a01b031681565b60405161016d91906116e8565b3480156101af57600080fd5b5061016360045481565b6101506105ba565b3480156101cd57600080fd5b506007546101db9060ff1681565b60405161016d9190611726565b3480156101f457600080fd5b5061020861020336600461173a565b610704565b60405161016d99989796959493929190611753565b34801561022957600080fd5b5061016360055481565b34801561023f57600080fd5b5061015061082c565b34801561025457600080fd5b5061015061096d565b34801561026957600080fd5b5061027d61027836600461173a565b610aaa565b60405160ff909116815260200161016d565b34801561029b57600080fd5b506101506102aa366004611801565b610b50565b3480156102bb57600080fd5b50610150610d82565b3480156102d057600080fd5b50600354610196906001600160a01b031681565b3480156102f057600080fd5b506000546001600160a01b0316610196565b34801561030e57600080fd5b5061016360085481565b34801561032457600080fd5b50610150610333366004611801565b610d94565b34801561034457600080fd5b5061015061035336600461173a565b610f63565b34801561036457600080fd5b5061016360095481565b34801561037a57600080fd5b5061015061038936600461173a565b6111b1565b34801561039a57600080fd5b5061016360065481565b3480156103b057600080fd5b50600254600354600454600554600654600754600854600954600b5460405161016d996001600160a01b0390811699169796959460ff908116949392169061187d565b3480156103ff57600080fd5b50600b5461027d9060ff1681565b34801561041957600080fd5b506101506104283660046118dc565b611321565b61043561135c565b600260075460ff16600681111561044e5761044e6116fc565b146104925760405162461bcd60e51b815260206004820152600f60248201526e6e6f7420696e2070726f677265737360881b60448201526064015b60405180910390fd5b6000600a600954815481106104a9576104a9611905565b6000918252602090912060089091020190506001600282015460ff1660048111156104d6576104d66116fc565b146104f35760405162461bcd60e51b81526004016104899061191b565b60085481600301546105059190611958565b42101561054b5760405162461bcd60e51b8152602060048201526014602482015273636c69656e742077696e646f772061637469766560601b6044820152606401610489565b61055781600954611386565b600980549060006105678361196b565b9091555050600a54600954106105ae576007805460ff191660031790556040517fc53292e4886b96b87cbcf562015d6bda4f0f183785772ae81e04ee056406666590600090a15b506105b860018055565b565b6105c261135c565b600060075460ff1660068111156105db576105db6116fc565b146106165760405162461bcd60e51b815260206004820152600b60248201526a6e6f742070617961626c6560a81b6044820152606401610489565b6003546001600160a01b03161561066d576003546001600160a01b0316331461066d5760405162461bcd60e51b81526020600482015260096024820152683737ba10313abcb2b960b91b6044820152606401610489565b60045434146106ad5760405162461bcd60e51b815260206004820152600c60248201526b1ddc9bdb99c8185b5bdd5b9d60a21b6044820152606401610489565b426005556007805460ff191660011790556106c661146e565b60405134815233907f737c69225d647e5994eab1a6c301bf6d9232beb2759ae1e27a8966b4732bc4899060200160405180910390a26105b860018055565b60008060008060008060606000806000600a8b8154811061072757610727611905565b6000918252602090912060089091020180546001820154600283015460038401546004850154600586015460078701546006880180549899509697959660ff958616969495938416949293909282821692610100900490911690839061078c90611984565b80601f01602080910402602001604051908101604052809291908181526020018280546107b890611984565b80156108055780601f106107da57610100808354040283529160200191610805565b820191906000526020600020905b8154815290600101906020018083116107e857829003601f168201915b50505050509250995099509950995099509950995099509950509193959799909294969850565b61083461135c565b600160075460ff16600681111561084d5761084d6116fc565b148061086f5750600260075460ff16600681111561086d5761086d6116fc565b145b61088b5760405162461bcd60e51b8152600401610489906119be565b6000600a600954815481106108a2576108a2611905565b9060005260206000209060080201905080600501544210156108fc5760405162461bcd60e51b8152602060048201526013602482015272191958591b1a5b99481b9bdd081c185cdcd959606a1b6044820152606401610489565b60006109066114ed565b6007805460ff1916600417905560035490915061092c906001600160a01b0316826115cc565b6009546040518281527f9b0ea444e9e2f5329d302a1a5cc179077359d71dfc083cfcf88360adfa01b3099060200160405180910390a250506105b860018055565b6002546001600160a01b031633146109975760405162461bcd60e51b8152600401610489906119e4565b61099f61135c565b600060075460ff1660068111156109b8576109b86116fc565b14806109da5750600160075460ff1660068111156109d8576109d86116fc565b145b610a165760405162461bcd60e51b815260206004820152600d60248201526c18d85b9b9bdd0818d85b98d95b609a1b6044820152606401610489565b600160075460ff166006811115610a2f57610a2f6116fc565b03610a6a576000610a3e6114ed565b6007805460ff19166004179055600354909150610a64906001600160a01b0316826115cc565b50610a78565b6007805460ff191660061790555b6040517fff55f944e5e81a0b0359ad20d72ceae167ab0a2b960e2c2cd67ebf5b43d15f2990600090a16105b860018055565b600a546000908210610aec5760405162461bcd60e51b815260206004820152600b60248201526a0d2dcecc2d8d2c840d2c8f60ab1b6044820152606401610489565b6000600a8381548110610b0157610b01611905565b60009182526020909120600b54600890920201600481015490925060ff918216911610610b315750600092915050565b6004810154600b54610b499160ff9081169116611a09565b9392505050565b6002546001600160a01b03163314610b7a5760405162461bcd60e51b8152600401610489906119e4565b610b8261135c565b600160075460ff166006811115610b9b57610b9b6116fc565b1480610bbd5750600260075460ff166006811115610bbb57610bbb6116fc565b145b610bf65760405162461bcd60e51b815260206004820152600a6024820152696e6f742061637469766560b01b6044820152606401610489565b6009548314610c3f5760405162461bcd60e51b81526020600482015260156024820152746e6f742063757272656e74206d696c6573746f6e6560581b6044820152606401610489565b6000600a8481548110610c5457610c54611905565b6000918252602082206008909102019150600282015460ff166004811115610c7e57610c7e6116fc565b14610cbf5760405162461bcd60e51b8152602060048201526011602482015270185b1c9958591e481cdd589b5a5d1d1959607a1b6044820152606401610489565b8060050154421115610d055760405162461bcd60e51b815260206004820152600f60248201526e191958591b1a5b99481c185cdcd959608a1b6044820152606401610489565b60028101805460ff1916600117905542600382015560068101610d29838583611a86565b506007805460ff1916600217905560405184907ff04befa55a56a87de7073cea8ab22499ccb81b540f0999577cf892224e3f721f90610d6b9086908690611b47565b60405180910390a250610d7d60018055565b505050565b610d8a61166b565b6105b86000611698565b6003546001600160a01b031615801590610db857506003546001600160a01b031633145b610dd45760405162461bcd60e51b815260040161048990611b76565b6000600a8481548110610de957610de9611905565b6000918252602090912060089091020190506001600282015460ff166004811115610e1657610e166116fc565b14610e535760405162461bcd60e51b815260206004820152600d60248201526c37379039bab136b4b9b9b4b7b760991b6044820152606401610489565b600b54600482015460ff918216911610610ea75760405162461bcd60e51b81526020600482015260156024820152741b585e081c995d9a5cda5bdb9cc81c995858da1959605a1b6044820152606401610489565b60048101805460019190600090610ec290849060ff16611b9a565b92506101000a81548160ff021916908360ff160217905550336001600160a01b03167f28b099eb575e23e32becd7c30dc8f9b2f98e370cdbf9841ea3338d9000402a258484604051610f15929190611b47565b60405180910390a2600b54600482015460ff918216911610610f5d5760405184907f61d2b9d77a1822ea58c83e0b3ec044610d9e89c7111664333de5bc648c5e4aab90600090a25b50505050565b6002546001600160a01b0316331480610f8657506003546001600160a01b031633145b610fbe5760405162461bcd60e51b81526020600482015260096024820152686e6f7420706172747960b81b6044820152606401610489565b6000600a8281548110610fd357610fd3611905565b60009182526020909120600b54600890920201600481015490925060ff9182169116101561103a5760405162461bcd60e51b81526020600482015260146024820152736e6f74206174206d6178207265766973696f6e7360601b6044820152606401610489565b600160075460ff166006811115611053576110536116fc565b14806110755750600260075460ff166006811115611073576110736116fc565b145b6110915760405162461bcd60e51b8152600401610489906119be565b6003546001600160a01b031633036110b75760078101805460ff191660011790556110c9565b60078101805461ff0019166101001790555b604051829033907f74d3eecbd7925611952eb75f45f1854034c0d47fec6eabca3d778e5d331f1ef290600090a3600781015460ff16801561111357506007810154610100900460ff165b156111ad5760006111226114ed565b6007805460ff19166004179055600354909150611148906001600160a01b0316826115cc565b827fd217ca15ec0a9eff56487d7c3b18a4caff4ae5c28f1cf8271899757ff7cec5f18260405161117a91815260200190565b60405180910390a26040517fff55f944e5e81a0b0359ad20d72ceae167ab0a2b960e2c2cd67ebf5b43d15f2990600090a1505b5050565b6003546001600160a01b0316158015906111d557506003546001600160a01b031633145b6111f15760405162461bcd60e51b815260040161048990611b76565b6111f961135c565b6000600a828154811061120e5761120e611905565b6000918252602090912060089091020190506001600282015460ff16600481111561123b5761123b6116fc565b146112585760405162461bcd60e51b81526004016104899061191b565b6002818101805460ff191690911790556112728183611386565b60078101805461ffff191690556009805490600061128f8361196b565b9091555050600a54600954106112d6576007805460ff191660031790556040517fc53292e4886b96b87cbcf562015d6bda4f0f183785772ae81e04ee056406666590600090a15b817f939da3b627c123c81fe5aacebf925163337a0d4f8a03724640618078cad24894826001015460405161130c91815260200190565b60405180910390a25061131e60018055565b50565b61132961166b565b6001600160a01b038116611353576000604051631e4fbdf760e01b815260040161048991906116e8565b61131e81611698565b60026001540361137f57604051633ee5aeb560e01b815260040160405180910390fd5b6002600155565b60018201546002808401805460ff19166003179055546040516000916001600160a01b03169083908381818185875af1925050503d80600081146113e6576040519150601f19603f3d011682016040523d82523d6000602084013e6113eb565b606091505b505090508061142e5760405162461bcd60e51b815260206004820152600f60248201526e1d1c985b9cd9995c8819985a5b1959608a1b6044820152606401610489565b827f9e069181c12760c2cd0078ed4facdbe1f3614543b0fbff5dbcac3cbc61a0b64e8360405161146091815260200190565b60405180910390a250505050565b60055460005b600a548110156111ad576000600a828154811061149357611493611905565b906000526020600020906008020160050154905080836114b39190611958565b600a83815481106114c6576114c6611905565b600091825260209091206005600890920201015550806114e58161196b565b915050611474565b6000805b600a548110156115c8576000600a828154811061151057611510611905565b600091825260209091206002600890920201015460ff166004811115611538576115386116fc565b148061157e57506001600a828154811061155457611554611905565b600091825260209091206002600890920201015460ff16600481111561157c5761157c6116fc565b145b156115b657600a818154811061159657611596611905565b906000526020600020906008020160010154826115b39190611958565b91505b806115c08161196b565b9150506114f1565b5090565b806000036115d8575050565b6000826001600160a01b03168260405160006040518083038185875af1925050503d8060008114611625576040519150601f19603f3d011682016040523d82523d6000602084013e61162a565b606091505b5050905080610d7d5760405162461bcd60e51b815260206004820152600d60248201526c1c185e5bdd5d0819985a5b1959609a1b6044820152606401610489565b6000546001600160a01b031633146105b8573360405163118cdaa760e01b815260040161048991906116e8565b600080546001600160a01b038381166001600160a01b0319831681178455604051919092169283917f8be0079c531659141344cd1fd0a4f28419497f9722a3daafe3b4186f6b6457e09190a35050565b6001600160a01b0391909116815260200190565b634e487b7160e01b600052602160045260246000fd5b60078110611722576117226116fc565b9052565b602081016117348284611712565b92915050565b60006020828403121561174c57600080fd5b5035919050565b60006101208b835260208b8185015260058b10611772576117726116fc565b8a604085015289606085015260ff891660808501528760a08501528160c085015286518083860152600092505b808310156117be5787830182015185840161014001529181019161179f565b6101409250600083828701015282601f19601f83011686010193505050506117ea60e083018515159052565b8215156101008301529a9950505050505050505050565b60008060006040848603121561181657600080fd5b83359250602084013567ffffffffffffffff8082111561183557600080fd5b818601915086601f83011261184957600080fd5b81358181111561185857600080fd5b87602082850101111561186a57600080fd5b6020830194508093505050509250925092565b6001600160a01b038a811682528916602082015260408101889052606081018790526080810186905261012081016118b860a0830187611712565b8460c08301528360e083015260ff83166101008301529a9950505050505050505050565b6000602082840312156118ee57600080fd5b81356001600160a01b0381168114610b4957600080fd5b634e487b7160e01b600052603260045260246000fd5b6020808252600d908201526c1b9bdd081cdd589b5a5d1d1959609a1b604082015260600190565b634e487b7160e01b600052601160045260246000fd5b8082018082111561173457611734611942565b60006001820161197d5761197d611942565b5060010190565b600181811c9082168061199857607f821691505b6020821081036119b857634e487b7160e01b600052602260045260246000fd5b50919050565b6020808252600c908201526b77726f6e672073746174757360a01b604082015260600190565b6020808252600b908201526a37b7363c9039b2b63632b960a91b604082015260600190565b60ff828116828216039081111561173457611734611942565b634e487b7160e01b600052604160045260246000fd5b601f821115610d7d57600081815260208120601f850160051c81016020861015611a5f5750805b601f850160051c820191505b81811015611a7e57828155600101611a6b565b505050505050565b67ffffffffffffffff831115611a9e57611a9e611a22565b611ab283611aac8354611984565b83611a38565b6000601f841160018114611ae65760008515611ace5750838201355b600019600387901b1c1916600186901b178355611b40565b600083815260209020601f19861690835b82811015611b175786850135825560209485019460019092019101611af7565b5086821015611b345760001960f88860031b161c19848701351681555b505060018560011b0183555b5050505050565b60208152816020820152818360408301376000818301604090810191909152601f909201601f19160101919050565b6020808252600a908201526937b7363c90313abcb2b960b11b604082015260600190565b60ff81811683821601908111156117345761173461194256fea2646970667358221220a593d9b89e76078784146c47aacf483194483d8997ac47ba583fb17552138e0764736f6c63430008140033a2646970667358221220b9c2ea749a4d6e07a975d15674863a47dab003cb5db7de462f44a811e9bd20b564736f6c63430008140033",
  "linkReferences": {},
  "deployedLinkReferences": {}
}