{
  "_format": "hh-sol-artifact-1",
  "contractName": "QuotationFactory",
  "sourceName": "contracts/QuotationFactory.sol",
  "abi": [
    {
      "inputs": [],
      "stateMutability": "nonpayable",
      "type": "constructor"
    },
    {
      "inputs": [
        {
          "internalType": "address",
          "name": "owner",
          "type": "address"
        }
      ],
      "name": "OwnableInvalidOwner",
      "type": "error"
    },
    {
      "inputs": [
        {
          "internalType": "address",
          "name": "account",
          "type": "address"
        }
      ],
      "name": "OwnableUnauthorizedAccount",
      "type": "error"
    },
    {
      "anonymous": false,
      "inputs": [
        {
          "indexed": true,
          "internalType": "address",
          "name": "previousOwner",
          "type": "address"
        },
        {
          "indexed": true,
          "internalType": "address",
          "name": "newOwner",
          "type": "address"
        }
      ],
      "name": "OwnershipTransferred",
      "type": "event"
    },
    {
      "anonymous": false,
      "inputs": [
        {
          "indexed": true,
          "internalType": "address",
          "name": "seller",
          "type": "address"
        },
        {
          "indexed": true,
          "internalType": "address",
          "name": "quotationAddress",
          "type": "address"
        },
        {
          "indexed": true,
          "internalType": "address",
          "name": "buyer",
          "type": "address"
        },
        {
          "indexed": false,
          "internalType": "uint256",
          "name": "total",
          "type": "uint256"
        },
        {
          "indexed": false,
          "internalType": "uint256",
          "name": "sellerStake",
          "type": "uint256"
        }
      ],
      "name": "QuotationCreated",
      "type": "event"
    },
    {
      "inputs": [
        {
          "internalType": "address",
          "name": "",
          "type": "address"
        },
        {
          "internalType": "uint256",
          "name": "",
          "type": "uint256"
        }
      ],
      "name": "buyerQuotations",
      "outputs": [
        {
          "internalType": "address",
          "name": "",
          "type": "address"
        }
      ],
      "stateMutability": "view",
      "type": "function"
    },
    {
      "inputs": [
        {
          "internalType": "address",
          "name": "buyer",
          "type": "address"
        },
        {
          "internalType": "uint256",
          "name": "totalAmount",
          "type": "uint256"
        },
        {
          "internalType": "uint256[]",
          "name": "milestonePercentsBP",
          "type": "uint256[]"
        },
        {
          "internalType": "uint256[]",
          "name": "milestoneDeadlines",
          "type": "uint256[]"
        },
        {
          "internalType": "uint256",
          "name": "clientWindowSeconds",
          "type": "uint256"
        },
        {
          "internalType": "uint8",
          "name": "maxRevisions",
          "type": "uint8"
        },
        {
          "internalType": "string",
          "name": "projectTitle",
          "type": "string"
        },
        {
          "internalType": "string",
          "name": "projectDescription",
          "type": "string"
        },
        {
          "internalType": "string[]",
          "name": "milestoneTitles",
          "type": "string[]"
        },
        {
          "internalType": "string[]",
          "name": "milestoneDescriptions",
          "type": "string[]"
        }
      ],
      "name": "createQuotation",
      "outputs": [
        {
          "internalType": "address",
          "name": "",
          "type": "address"
        }
      ],
      "stateMutability": "payable",
      "type": "function"
    },
    {
      "inputs": [
        {
          "internalType": "address",
          "name": "user",
          "type": "address"
        }
      ],
      "name": "getBuyerQuotations",
      "outputs": [
        {
          "internalType": "address[]",
          "name": "",
          "type": "address[]"
        }
      ],
      "stateMutability": "view",
      "type": "function"
    },
    {
      "inputs": [
        {
          "internalType": "address",
          "name": "user",
          "type": "address"
        }
      ],
      "name": "getUserQuotations",
      "outputs": [
        {
          "internalType": "address[]",
          "name": "",
          "type": "address[]"
        }
      ],
      "stateMutability": "view",
      "type": "function"
    },
    {
      "inputs": [],
      "name": "owner",
      "outputs": [
        {
          "internalType": "address",
          "name": "",
          "type": "address"
        }
      ],
      "stateMutability": "view",
      "type": "function"
    },
    {
      "inputs": [],
      "name": "renounceOwnership",
      "outputs": [],
      "stateMutability": "nonpayable",
      "type": "function"
    },
    {
      "inputs": [
        {
          "internalType": "address",
          "name": "",
          "type": "address"
        },
        {
          "internalType": "uint256",
          "name": "",
          "type": "uint256"
        }
      ],
      "name": "sellerQuotations",
      "outputs": [
        {
          "internalType": "address",
          "name": "",
          "type": "address"
        }
      ],
      "stateMutability": "view",
      "type": "function"
    },
    {
      "inputs": [
        {
          "internalType": "address",
          "name": "newOwner",
          "type": "address"
        }
      ],
      "name": "transferOwnership",
      "outputs": [],
      "stateMutability": "nonpayable",
      "type": "function"
    }
  ],
  "bytecode": "0x6080806040523461007a5733156100645760008054336001600160a01b03198216811783556040519290916001600160a01b0316907f8be0079c531659141344cd1fd0a4f28419497f9722a3daafe3b4186f6b6457e09080a361355c90816100808239f35b631e4fbdf760e01b815260006004820152602490fd5b600080fdfe608060405260043610156200001357600080fd5b60003560e01c8063715018a614620006fa5780637673f85314620006565780638da5cb5b146200062b578063aa20d61a1462000583578063d376cc9614620001c7578063dfbfdfcd1462000177578063f2fde38b14620000e25763f4c70317146200007d57600080fd5b34620000dd576040366003190112620000dd576200009a62000757565b6024359060018060a01b03809116600052600160205260406000208054831015620000dd57602092620000cd9162000819565b9190546040519260031b1c168152f35b600080fd5b34620000dd576020366003190112620000dd57620000ff62000757565b6200010962000848565b6001600160a01b039081169081156200015e57600054826bffffffffffffffffffffffff60a01b821617600055167f8be0079c531659141344cd1fd0a4f28419497f9722a3daafe3b4186f6b6457e0600080a3005b604051631e4fbdf760e01b815260006004820152602490fd5b34620000dd576040366003190112620000dd576200019462000757565b6024359060018060a01b03809116600052600260205260406000208054831015620000dd57602092620000cd9162000819565b610140366003190112620000dd57620001df62000757565b60443567ffffffffffffffff8111620000dd5762000202903690600401620007b4565b60643567ffffffffffffffff8111620000dd5762000225903690600401620007b4565b60a4929192359060ff82168203620000dd5760c43567ffffffffffffffff8111620000dd576200025a903690600401620007e8565b95909460e43567ffffffffffffffff8111620000dd5762000280903690600401620007e8565b916101043567ffffffffffffffff8111620000dd57620002a5903690600401620007b4565b92909367ffffffffffffffff6101243511620000dd57620002cd3661012435600401620007b4565b979098818b036200054c578a86036200050f578a8903620004d3576040519c8d67ffffffffffffffff81612b9781011091612b97011117620004bd578d9c8f60c08f91620004059f620003d59a620003bd98620003ed9f6200036e90620003859460ff96612b97620009908b3933612b978b019081526001600160a01b03919091166020820152602435604082015261018060608201819052019162000875565b91612b97870183036080612b978901015262000875565b9560843560a0612b97860101521691612b970101528d60e03491612b970101528d610100612b978201850391612b970101526200089a565b91612b978b018303610120612b978d0101526200089a565b91612b9788018303610140612b978a010152620008bb565b91612b9785018303610160612b9787010152620008bb565b039034f0908115620004b15760209160018060a01b0316903360005260018352620004358260406000206200094c565b6001600160a01b0381166200048b575b81604051916024358352348584015260018060a01b0316917f93efdbb8285f6570e9ecf17b21f9a7670a99da443b8030410fa0791a5970d94060403392a4604051908152f35b60018060a01b03811660005260028352620004ab8260406000206200094c565b62000445565b6040513d6000823e3d90fd5b634e487b7160e01b600052604160045260246000fd5b60405162461bcd60e51b81526020600482015260146024820152730c8cae6c640d8cadccee8d040dad2e6dac2e8c6d60631b6044820152606490fd5b60405162461bcd60e51b81526020600482015260156024820152740e8d2e8d8ca40d8cadccee8d040dad2e6dac2e8c6d605b1b6044820152606490fd5b60405162461bcd60e51b815260206004820152600f60248201526e0d8cadccee8d040dad2e6dac2e8c6d608b1b6044820152606490fd5b34620000dd57602080600319360112620000dd576001600160a01b039081620005ab62000757565b1660005260028152604060002090604051809382845492838152019360005282600020926000915b8383106200061157868603601f01601f191687018767ffffffffffffffff821181831017620004bd576200060d829182604052826200076e565b0390f35b8454811686529481019460019485019490920191620005d3565b34620000dd576000366003190112620000dd576000546040516001600160a01b039091168152602090f35b34620000dd57602080600319360112620000dd576001600160a01b0390816200067e62000757565b16600052600190818152604060002091604051809483855492838152019460005283600020936000915b838310620006e257878703601f01601f191688018867ffffffffffffffff821181831017620004bd576200060d829182604052826200076e565b855481168752958101959484019491840191620006a8565b34620000dd576000366003190112620000dd576200071762000848565b600080546001600160a01b0319811682556001600160a01b03167f8be0079c531659141344cd1fd0a4f28419497f9722a3daafe3b4186f6b6457e08280a3005b600435906001600160a01b0382168203620000dd57565b6020908160408183019282815285518094520193019160005b82811062000796575050505090565b83516001600160a01b03168552938101939281019260010162000787565b9181601f84011215620000dd5782359167ffffffffffffffff8311620000dd576020808501948460051b010111620000dd57565b9181601f84011215620000dd5782359167ffffffffffffffff8311620000dd5760208381860195010111620000dd57565b8054821015620008325760005260206000200190600090565b634e487b7160e01b600052603260045260246000fd5b6000546001600160a01b031633036200085d57565b60405163118cdaa760e01b8152336004820152602490fd5b81835290916001600160fb1b038311620000dd5760209260051b809284830137010190565b908060209392818452848401376000828201840152601f01601f1916010190565b9082818152602080910193818360051b82010194846000925b858410620008e6575050505050505090565b90919293949596601f198282030184528735601e1984360301811215620000dd57830186810191903567ffffffffffffffff8111620000dd578036038313620000dd576200093a889283926001956200089a565b990194019401929594939190620008d4565b805468010000000000000000811015620004bd57620009719160018201815562000819565b819291549060031b9160018060a01b03809116831b921b191617905556fe608060405262002b9780380380620000178162000d67565b9283398101906101808183031262000d6257620000348162000d8d565b90620000436020820162000d8d565b60408201516060830151919490916001600160401b03811162000d6257816200006e91850162000dba565b60808401519093906001600160401b03811162000d6257826200009391830162000dba565b9160a082015160c083015160ff8116810362000d625760e08401516101008501519092906001600160401b03811162000d625784620000d491870162000e1d565b6101208601519095906001600160401b03811162000d625785620000fa91830162000e1d565b6101408201519091906001600160401b03811162000d6257866200012091830162000e8f565b6101608201519096906001600160401b03811162000d625762000144920162000e8f565b956001600160a01b038b161562000d4957600080546001600160a01b038d81166001600160a01b0319831681178455929116907f8be0079c531659141344cd1fd0a4f28419497f9722a3daafe3b4186f6b6457e09080a360018055881562000d1757895188510362000ce35785518a510362000cad5786518a510362000c785760009b8c5b8d8c5111156200021357620001df8e8d62000f1f565b518101809111620001fd57620001f6909d62000f0f565b9c620001c9565b634e487b7160e01b600052601160045260246000fd5b6127108d910362000c3357600280546001600160a01b039283166001600160a01b031991821617909155600380549390921692169190911790558051906001600160401b038211620007ca5760045490600182811c9216801562000c28575b6020831014620007a95781601f84931162000bb6575b50602090601f831160011462000b275760009262000b1b575b50508160011b916000199060031b1c1916176004555b8051906001600160401b038211620007ca57600554600181811c9116801562000b10575b6020821014620007a957601f811162000ac6575b50602090601f831160011462000a515760ff949392916000918362000a45575b50508160011b916000199060031b1c1916176005555b8760065542600855821960095416600955801560001462000a3f575062093a805b600a556000600b551660ff19600d541617600d55600e5560005b8551811015620009ed5762000376818762000f1f565b5185818102048103620001fd576200038f828462000f1f565b51906200039d838662000f1f565b5191620003ab848a62000f1f565b5191620003b9858962000f1f565b51604051949093906001600160401b03610160870190811190871117620007ca57612710936101608701604052865260208601526040850152880204606083015260006080830152600060a0830152600060c083015260e082015260405180602081011060018060401b03602083011117620007ca57602081016040526000815261010082015260006101208201526000610140820152600c5468010000000000000000811015620007ca576001810180600c55811015620009d757600c600052815180517fdf6966c971051c3d54ec59162606531493a51404a002842f56009d7e5cf4a8c792916001600160401b038211620007ca57600a830284015490600182811c92168015620009cc575b6020831014620007a95781601f84931162000972575b50602090601f8311600114620008f757600092620008eb575b50508160011b916000199060031b1c191617600a82028301555b60208301518051906001600160401b038211620007ca576001600a84028501015490600182811c92168015620008e0575b6020831014620007a95781601f84931162000883575b50602090601f83116001146200080257600092620007f6575b50508160011b916000199060031b1c1916176001600a8302840101555b60408301516002600a83028401015560608301516003600a83028401015560808301516005811015620007e0576004600a83028401908101805460ff1990811660ff9485161790915560a0860151600583015560c08601516006830180549190941691161790915560e08401516007909101556101008301518051906001600160401b038211620007ca576008600a840285010154600181811c91168015620007bf575b6020821014620007a957601f811162000758575b50602090601f8311600114620006ce579282620006bc97969593600a93600996600092620006c2575b50508160011b916000199060031b1c1916176008838302850101555b0201019061012081015115159060ff61ff006101408554930151151560081b1692169061ffff19161717905562000f0f565b62000360565b015190508e806200066e565b906008600a850286010160005260206000209160005b601f19851681106200073f575083600a9360099693600193620006bc9b9a9997601f1981161062000725575b505050811b016008838302850101556200068a565b015160001960f88460031b161c191690558e808062000710565b91926020600181928685015181550194019201620006e4565b6008600a85028601016000526020600020601f840160051c810160208510620007a1575b601f830160051c820181106200079457505062000645565b600081556001016200077c565b50806200077c565b634e487b7160e01b600052602260045260246000fd5b90607f169062000631565b634e487b7160e01b600052604160045260246000fd5b634e487b7160e01b600052602160045260246000fd5b015190508b8062000570565b92506001600a85028601016000526020600020906000935b601f198416851062000867576001945083601f198116106200084d575b505050811b016001600a8302840101556200058d565b015160001960f88460031b161c191690558b808062000837565b818101518355602094850194600190930192909101906200081a565b9091506001600a85028601016000526020600020601f840160051c810160208510620008d8575b90849392915b601f830160051c82018110620008c857505062000557565b60008155859450600101620008b0565b5080620008aa565b91607f169162000541565b015190508b80620004f6565b9250600a840285016000526020600020906000935b601f198416851062000956576001945083601f198116106200093c575b505050811b01600a820283015562000510565b015160001960f88460031b161c191690558b808062000929565b818101518355602094850194600190930192909101906200090c565b909150600a840285016000526020600020601f840160051c810160208510620009c4575b90849392915b601f830160051c82018110620009b4575050620004dd565b600081558594506001016200099c565b508062000996565b91607f1691620004c7565b634e487b7160e01b600052603260045260246000fd5b6002546003546040518781526001600160a01b0391821692909116907f5f9f09111aa41ed5dbcbe1f33f7adf1abe2a52ec9f9d2afea63f3bc6c1de31af90602090a3604051611c62908162000f358239f35b62000346565b015190508b806200030f565b90600560005260206000209160005b601f198516811062000aad575091839160019360ff979695601f1981161062000a93575b505050811b0160055562000325565b015160001960f88460031b161c191690558b808062000a84565b9192602060018192868501518155019401920162000a60565b60056000526020600020601f840160051c81016020851062000b08575b601f830160051c8201811062000afb575050620002ef565b6000815560010162000ae3565b508062000ae3565b90607f1690620002db565b015190508b80620002a1565b6004600090815293507f8a35acfbc15ff81a39ae7d344fd709f28e8600b4aa8c65c6b64bfe7fe36bd19b91905b601f198416851062000b9a576001945083601f1981161062000b80575b505050811b01600455620002b7565b015160001960f88460031b161c191690558b808062000b71565b8181015183556020948501946001909301929091019062000b54565b60046000529091507f8a35acfbc15ff81a39ae7d344fd709f28e8600b4aa8c65c6b64bfe7fe36bd19b601f840160051c81016020851062000c20575b90849392915b601f830160051c8201811062000c1057505062000288565b6000815585945060010162000bf8565b508062000bf2565b91607f169162000272565b60405162461bcd60e51b815260206004820152601760248201527f70657263656e7473206d7573742073756d2031303030300000000000000000006044820152606490fd5b60405162461bcd60e51b815260206004820152600d60248201526c0c8cae6c640dad2e6dac2e8c6d609b1b6044820152606490fd5b60405162461bcd60e51b815260206004820152600e60248201526d0e8d2e8d8ca40dad2e6dac2e8c6d60931b6044820152606490fd5b60405162461bcd60e51b815260206004820152600c60248201526b0d8cadc40dad2e6dac2e8c6d60a31b6044820152606490fd5b60405162461bcd60e51b815260206004820152600a602482015269746f74616c207a65726f60b01b6044820152606490fd5b604051631e4fbdf760e01b815260006004820152602490fd5b600080fd5b6040519190601f01601f191682016001600160401b03811183821017620007ca57604052565b51906001600160a01b038216820362000d6257565b6001600160401b038111620007ca5760051b60200190565b9080601f8301121562000d625781519062000ddf62000dd98362000da2565b62000d67565b9182938184526020808095019260051b82010192831162000d62578301905b82821062000e0d575050505090565b8151815290830190830162000dfe565b919080601f8401121562000d625782516001600160401b038111620007ca5760209062000e53601f8201601f1916830162000d67565b9281845282828701011162000d625760005b81811062000e7b57508260009394955001015290565b858101830151848201840152820162000e65565b81601f8201121562000d625780519162000ead62000dd98462000da2565b9182938084526020808095019160051b8301019280841162000d6257848301915b84831062000edf5750505050505090565b82516001600160401b03811162000d6257869162000f038484809489010162000e1d565b81520192019162000ece565b6000198114620001fd5760010190565b8051821015620009d75760209160051b01019056fe60406080815260048036101561001f575b5050361561001d57600080fd5b005b600091823560e01c806305ccecc6146113ed5780630681ca55146113ce57806308551a53146113a55780631a39d8ef146113865780631b9265b8146111d9578063200d2ed2146111b05780632442e1cb146110ae57806333f092f91461108f57806347b0010114610f5257806351261ca214610e2e5780635a3a2c2e14610e045780635e29172f14610ad8578063715018a614610a7b5780637150d8ae14610a52578063755f047b1461097f5780638da5cb5b146109575780638eaca5f614610938578063a36697d3146107b6578063a3d97d611461056e578063b03048131461054f578063b8a7b38a1461052b578063baafe32d1461050c578063c3e20c9f14610423578063c438b40f146102b3578063cf09e0d014610294578063d36dedd214610216578063d43fee18146101f05763f2fde38b146101605750610010565b346101ec5760203660031901126101ec576001600160a01b038235818116939192908490036101e857610191611710565b83156101d257505082546001600160a01b0319811683178455167f8be0079c531659141344cd1fd0a4f28419497f9722a3daafe3b4186f6b6457e08380a380f35b51631e4fbdf760e01b8152908101849052602490fd5b8480fd5b8280fd5b83823461021257816003193601126102125760209060ff600d54169051908152f35b5080fd5b8382346102125781600319360112610212576101209060018060a01b0390816002541691600354169060065461028260075460085460ff6009541691600a5494600b549660ff600d54169881519a8b5260208b01528901526060880152608087015260a0860190611543565b60c084015260e0830152610100820152f35b8382346102125781600319360112610212576020906008549051908152f35b50346101ec5760203660031901126101ec57600354823592906102e9906001600160a01b03168015159081610419575b50611844565b6102f161173c565b6102fa83611784565b509080820180549160ff83169060058210156104065750927f939da3b627c123c81fe5aacebf925163337a0d4f8a03724640618078cad24894949260039261034660016020971461187d565b60ff19918216600217905561035b878361197e565b6009820161ffff198154169055610373600b5461175f565b80600b55600c541115806103d3575b610397575b5001549051908152a26001805580f35b829060095416176009556103a96118f9565b7fc53292e4886b96b87cbcf562015d6bda4f0f183785772ae81e04ee05640666658780a138610387565b838260095416176009557fc53292e4886b96b87cbcf562015d6bda4f0f183785772ae81e04ee05640666658980a1610382565b634e487b7160e01b885260219052602487fd5b90503314386102e3565b50346101ec57826003193601126101ec5780519183815490610444826115f8565b808652926001928084169081156104e15750600114610485575b610481868661046f828b0383611632565b51918291602083526020830190611566565b0390f35b815294507f8a35acfbc15ff81a39ae7d344fd709f28e8600b4aa8c65c6b64bfe7fe36bd19b5b8286106104c95750505061046f82602061048195820101943861045e565b805460208787018101919091529095019481016104ab565b905061048197508693506020925061046f94915060ff191682840152151560051b820101943861045e565b838234610212578160031936011261021257602090600e549051908152f35b83823461021257816003193601126102125760209060ff600f541690519015158152f35b838234610212578160031936011261021257602090600b549051908152f35b5090346101ec5760203660031901126101ec576002548135926001600160a01b03918216331480156107a9575b1561077b576105a984611784565b5060ff60068201541660ff600d5416116107415760099060ff825416600781101561072e57906105e6826001859414908115610723575b50611a17565b8460035416331460001461070e57808201805460ff191660011790555b86337f74d3eecbd7925611952eb75f45f1854034c0d47fec6eabca3d778e5d331f1ef28a80a3015460ff81169081610700575b5061063f578580f35b7fd217ca15ec0a9eff56487d7c3b18a4caff4ae5c28f1cf8271899757ff7cec5f1936020936106a99288610671611a94565b926001600e5495869460ff199182825416179055600f541617600f5561069b848260035416611b5a565b826106dc575b5050506117d5565b9051908152a27fff55f944e5e81a0b0359ad20d72ceae167ab0a2b960e2c2cd67ebf5b43d15f298180a138808080808580f35b81806106f8948193600354165af16106f26118b9565b50611a52565b8188386106a1565b60ff915060081c1638610636565b808201805461ff001916610100179055610603565b6002915014386105e0565b634e487b7160e01b885260218652602488fd5b815162461bcd60e51b815260208186015260146024820152736e6f74206174206d6178207265766973696f6e7360601b6044820152606490fd5b5162461bcd60e51b815260208184015260096024820152686e6f7420706172747960b81b6044820152606490fd5b508160035416331461059b565b5090346101ec576107c6366115a6565b6003549294926107e8906001600160a01b031680151590816104195750611844565b6107f185611784565b509260ff938486820154166005811015610925576001036108f25760060180549585871686600d54168110156108b757600101908682116108a45750917f28b099eb575e23e32becd7c30dc8f9b2f98e370cdbf9841ea3338d9000402a2593918661086c9416809860ff19161790555191829133958361181c565b0390a2600d5416111561087d575080f35b7f61d2b9d77a1822ea58c83e0b3ec044610d9e89c7111664333de5bc648c5e4aab8280a280f35b634e487b7160e01b8a5260119052602489fd5b835162461bcd60e51b815260208184015260156024820152741b585e081c995d9a5cda5bdb9cc81c995858da1959605a1b6044820152606490fd5b815162461bcd60e51b8152602081880152600d60248201526c37379039bab136b4b9b9b4b7b760991b6044820152606490fd5b634e487b7160e01b895260218752602489fd5b838234610212578160031936011261021257602090600a549051908152f35b838234610212578160031936011261021257905490516001600160a01b039091168152602090f35b838234610212578160031936011261021257805190826005546109a1816115f8565b80855291600191808316908115610a2a57506001146109cd575b50505061046f82610481940383611632565b9450600585527f036b6384b5eca791c62761152d0c79bb0604c104a5fb6f4eb0703f3154bb3db05b828610610a125750505061046f82602061048195820101946109bb565b805460208787018101919091529095019481016109f5565b61048197508693506020925061046f94915060ff191682840152151560051b820101946109bb565b83823461021257816003193601126102125760035490516001600160a01b039091168152602090f35b8334610ad55780600319360112610ad557610a94611710565b80546001600160a01b03198116825581906001600160a01b03167f8be0079c531659141344cd1fd0a4f28419497f9722a3daafe3b4186f6b6457e08280a380f35b80fd5b50346101ec57610ae7366115a6565b9192610afe60018060a01b036002541633146117e2565b610b0661173c565b60ff60095416946007861015610df157600195868114908115610de6575b5015610db757600b548503610d7d57610b3c85611784565b50908082019182549260ff84166005811015610d6a57610d335760078201544211610cfe5760ff19938416891790554260058201556008019067ffffffffffffffff8611610ceb5750610b8f81546115f8565b601f8111610ca3575b5087601f8611600114610c1157610bfe92869594927ff04befa55a56a87de7073cea8ab22499ccb81b540f0999577cf892224e3f721f976002938c91610c06575b50600019600389901b1c1916878b1b1790555b6009541617600955519283928361181c565b0390a2805580f35b905086013538610bd9565b8189526020808a209190601f198816908b905b8b838310610c8c5750505092600292610bfe9592897ff04befa55a56a87de7073cea8ab22499ccb81b540f0999577cf892224e3f721f9a99989610610c72575b50508987811b019055610bec565b87013560001960038a901b60f8161c191690553880610c64565b898501358655909401939283019290810190610c24565b81895260208920601f870160051c81019160208810610ce1575b601f0160051c019088905b828110610cd6575050610b98565b8a8155018890610cc8565b9091508190610cbd565b634e487b7160e01b895260419052602488fd5b845162461bcd60e51b8152602081850152600f60248201526e191958591b1a5b99481c185cdcd959608a1b6044820152606490fd5b845162461bcd60e51b81526020818501526011602482015270185b1c9958591e481cdd589b5a5d1d1959607a1b6044820152606490fd5b634e487b7160e01b8b526021845260248bfd5b6020606492519162461bcd60e51b835282015260156024820152746e6f742063757272656e74206d696c6573746f6e6560581b6044820152fd5b6020606492519162461bcd60e51b8352820152600a6024820152696e6f742061637469766560b01b6044820152fd5b600291501438610b24565b634e487b7160e01b875260219052602486fd5b508234610ad5576020366003190112610ad5575060ff610e2660209335611bbd565b915191168152f35b5090346101ec57826003193601126101ec576002546001600160a01b0390610e5990821633146117e2565b610e6161173c565b6009549260ff84169060078210159081610f3f5782158015610f32575b15610f005750610eed57600103610edc57610eb19250610e9c611a94565b9160ff19600954161760095560035416611b5a565b7fff55f944e5e81a0b0359ad20d72ceae167ab0a2b960e2c2cd67ebf5b43d15f298180a16001805580f35b505060ff1916600617600955610eb1565b634e487b7160e01b855260218352602485fd5b5162461bcd60e51b8152602081860152600d60248201526c18d85b9b9bdd0818d85b98d95b609a1b6044820152606490fd5b5086915060018314610e7e565b634e487b7160e01b875260218552602487fd5b50346101ec57826003193601126101ec57610f6b61173c565b6009549160ff8316600781101561107c57806001610f9192149081156107235750611a17565b6007610f9e600b54611784565b5001544210611044577f9b0ea444e9e2f5329d302a1a5cc179077359d71dfc083cfcf88360adfa01b309916110196020926001610fd9611a94565b96600e549260ff1980921617600955600f541617600f55808760018060a01b03611007898260035416611b5a565b82611026575b505050600b54956117d5565b9051908152a26001805580f35b818061103c948193600354165af16106f26118b9565b80873861100d565b6020606492519162461bcd60e51b83528201526013602482015272191958591b1a5b99481b9bdd081c185cdcd959606a1b6044820152fd5b634e487b7160e01b855260218252602485fd5b8382346102125781600319360112610212576020906007549051908152f35b508234610ad5576020366003190112610ad5576110cb8335611784565b509160028301549260038101549260ff8683015416600583015460ff600685015416906007850154926009860154966111066008880161166a565b9561111c60016111158a61166a565b990161166a565b9982519b8c5260208c0152600583101561119d57509461048197948a99979460ff946111699461118e998d015260608c015260808b015260a08a01526101608060c08b0152890190611566565b92818116151560e089015260081c161515610100870152858203610120870152611566565b90838203610140850152611566565b634e487b7160e01b815260218c52602490fd5b8382346102125781600319360112610212576020906111d760ff6009541691518092611543565bf35b50826003193601126101ec576111ed61173c565b60095460079260ff82168481101561137357611342576003546001600160a01b031680611307575b5060065434036112d5575042835560ff1916600190811760095591829084825b61126c575b505050513481527f737c69225d647e5994eab1a6c301bf6d9232beb2759ae1e27a8966b4732bc48960203392a2805580f35b600c548110156112d057808261128461129a93611784565b500154428111156112b45742116112a05761175f565b82611235565b6112a981611784565b50834291015561175f565b6112be90426117d5565b836112c883611784565b50015561175f565b61123a565b606490602084519162461bcd60e51b8352820152600c60248201526b1ddc9bdb99c8185b5bdd5b9d60a21b6044820152fd5b33036113135738611215565b606490602084519162461bcd60e51b835282015260096024820152683737ba10313abcb2b960b91b6044820152fd5b606490602084519162461bcd60e51b8352820152600b60248201526a6e6f742070617961626c6560a81b6044820152fd5b634e487b7160e01b865260218252602486fd5b8382346102125781600319360112610212576020906006549051908152f35b83823461021257816003193601126102125760025490516001600160a01b039091168152602090f35b838234610212578160031936011261021257602090600c549051908152f35b5091903461021257816003193601126102125761140861173c565b60ff600954166007811015611530576002036114fb57600b549061142b82611784565b509060ff8183015416600581101561107c576001611449911461187d565b61145a6005830154600a54906117d5565b42106114c157509061146b9161197e565b611476600b5461175f565b80600b55600c54111561148b575b6001805580f35b600360ff1960095416176009557fc53292e4886b96b87cbcf562015d6bda4f0f183785772ae81e04ee05640666658180a1611484565b606490602086519162461bcd60e51b83528201526014602482015273636c69656e742077696e646f772061637469766560601b6044820152fd5b606490602084519162461bcd60e51b8352820152600f60248201526e6e6f7420696e2070726f677265737360881b6044820152fd5b634e487b7160e01b835260218252602483fd5b9060078210156115505752565b634e487b7160e01b600052602160045260246000fd5b919082519283825260005b848110611592575050826000602080949584010152601f8019910116010190565b602081830181015184830182015201611571565b60406003198201126115f3576004359160243567ffffffffffffffff928382116115f357806023830112156115f35781600401359384116115f357602484830101116115f3576024019190565b600080fd5b90600182811c92168015611628575b602083101461161257565b634e487b7160e01b600052602260045260246000fd5b91607f1691611607565b90601f8019910116810190811067ffffffffffffffff82111761165457604052565b634e487b7160e01b600052604160045260246000fd5b906040519182600082549261167e846115f8565b9081845260019485811690816000146116ed57506001146116aa575b50506116a892500383611632565b565b9093915060005260209081600020936000915b8183106116d55750506116a89350820101388061169a565b855488840185015294850194879450918301916116bd565b9150506116a894506020925060ff191682840152151560051b820101388061169a565b6000546001600160a01b0316330361172457565b60405163118cdaa760e01b8152336004820152602490fd5b60026001541461174d576002600155565b604051633ee5aeb560e01b8152600490fd5b600019811461176e5760010190565b634e487b7160e01b600052601160045260246000fd5b600c548110156117bf57600a90600c600052027fdf6966c971051c3d54ec59162606531493a51404a002842f56009d7e5cf4a8c70190600090565b634e487b7160e01b600052603260045260246000fd5b9190820180921161176e57565b156117e957565b60405162461bcd60e51b815260206004820152600b60248201526a37b7363c9039b2b63632b960a91b6044820152606490fd5b90918060409360208452816020850152848401376000828201840152601f01601f1916010190565b1561184b57565b60405162461bcd60e51b815260206004820152600a60248201526937b7363c90313abcb2b960b11b6044820152606490fd5b1561188457565b60405162461bcd60e51b815260206004820152600d60248201526c1b9bdd081cdd589b5a5d1d1959609a1b6044820152606490fd5b3d156118f4573d9067ffffffffffffffff821161165457604051916118e8601f8201601f191660200184611632565b82523d6000602084013e565b606090565b600f5460ff811661197b5760ff1916600117600f55600e54806119195750565b6002546000918291829182916001600160a01b03165af16119386118b9565b501561194057565b60405162461bcd60e51b81526020600482015260136024820152721cdd185ad9481c995d1d5c9b8819985a5b1959606a1b6044820152606490fd5b50565b600460038201549101600360ff1982541617905560008080808460018060a01b03600254165af16119ad6118b9565b50156119e05760207f9e069181c12760c2cd0078ed4facdbe1f3614543b0fbff5dbcac3cbc61a0b64e91604051908152a2565b60405162461bcd60e51b815260206004820152600f60248201526e1d1c985b9cd9995c8819985a5b1959608a1b6044820152606490fd5b15611a1e57565b60405162461bcd60e51b815260206004820152600c60248201526b77726f6e672073746174757360a01b6044820152606490fd5b15611a5957565b60405162461bcd60e51b81526020600482015260136024820152721cdd185ad9481c185e5bdd5d0819985a5b1959606a1b6044820152606490fd5b600090600080600c54905b818110611aab57505050565b611ab481611784565b5060049081015460ff91600591831682811015611b475715928315611b0e575b505050611aea575b611ae59061175f565b611a9f565b93611b06611ae5916003611afd88611784565b500154906117d5565b949050611adc565b9080929350611b1c85611784565b5001541691821015611b345750600114388080611ad4565b634e487b7160e01b855260219052602484fd5b634e487b7160e01b875260218252602487fd5b8115611bb9576000918291829182916001600160a01b03165af1611b7c6118b9565b5015611b8457565b60405162461bcd60e51b815260206004820152600d60248201526c1c185e5bdd5d0819985a5b1959609a1b6044820152606490fd5b5050565b600c54811015611bf9576006611bd460ff92611784565b5001541660ff600d541680821015611bf2570360ff811161176e5790565b5050600090565b60405162461bcd60e51b815260206004820152600b60248201526a0d2dcecc2d8d2c840d2c8f60ab1b6044820152606490fdfea264697066735822122084c4711ac22aceef5ca2794d297298dfb9c725dc99f9fe406b89ff89292a4d5764736f6c63430008140033a2646970667358221220aedc1bc8a22a1f0149ca38e6cc0140f412542e57d3c413a669e3d52a7c10b5f964736f6c63430008140033",
  "linkReferences": {},
  "deployedLinkReferences": {}
}